{
  "_format": "hh-sol-artifact-1",
  "contractName": "lottery",
  "sourceName": "contracts/Lottery.sol",
  "abi": [
    {
      "inputs": [],
      "stateMutability": "nonpayable",
      "type": "constructor"
    },
    {
      "inputs": [],
      "name": "manager",
      "outputs": [
        {
          "internalType": "address",
          "name": "",
          "type": "address"
        }
      ],
      "stateMutability": "view",
      "type": "function"
    },
    {
      "inputs": [
        {
          "internalType": "uint256",
          "name": "",
          "type": "uint256"
        }
      ],
      "name": "participants",
      "outputs": [
        {
          "internalType": "address payable",
          "name": "",
          "type": "address"
        }
      ],
      "stateMutability": "view",
      "type": "function"
    },
    {
      "inputs": [],
      "name": "random",
      "outputs": [
        {
          "internalType": "uint256",
          "name": "",
          "type": "uint256"
        }
      ],
      "stateMutability": "view",
      "type": "function"
    },
    {
      "inputs": [],
      "name": "selectWinner",
      "outputs": [],
      "stateMutability": "nonpayable",
      "type": "function"
    },
    {
      "inputs": [],
      "name": "showBal",
      "outputs": [
        {
          "internalType": "uint256",
          "name": "",
          "type": "uint256"
        }
      ],
      "stateMutability": "view",
      "type": "function"
    },
    {
      "stateMutability": "payable",
      "type": "receive"
    }
  ],
  "bytecode": "0x608060405234801561001057600080fd5b50336000806101000a81548173ffffffffffffffffffffffffffffffffffffffff021916908373ffffffffffffffffffffffffffffffffffffffff1602179055506108c5806100606000396000f3fe60806040526004361061004e5760003560e01c80631040e5a5146100ff57806333a99e041461012a57806335c1d34914610141578063481c6a751461017e5780635ec01e4d146101a9576100fa565b366100fa5760023414610096576040517f08c379a000000000000000000000000000000000000000000000000000000000815260040161008d906105bd565b60405180910390fd5b6001339080600181540180825580915050600190039060005260206000200160009091909190916101000a81548173ffffffffffffffffffffffffffffffffffffffff021916908373ffffffffffffffffffffffffffffffffffffffff1602179055005b600080fd5b34801561010b57600080fd5b506101146101d4565b60405161012191906105f6565b60405180910390f35b34801561013657600080fd5b5061013f61026a565b005b34801561014d57600080fd5b5061016860048036038101906101639190610642565b61041c565b60405161017591906106b0565b60405180910390f35b34801561018a57600080fd5b5061019361045b565b6040516101a091906106ec565b60405180910390f35b3480156101b557600080fd5b506101be61047f565b6040516101cb91906105f6565b60405180910390f35b60003373ffffffffffffffffffffffffffffffffffffffff1660008054906101000a900473ffffffffffffffffffffffffffffffffffffffff1673ffffffffffffffffffffffffffffffffffffffff1614610264576040517f08c379a000000000000000000000000000000000000000000000000000000000815260040161025b90610753565b60405180910390fd5b47905090565b3373ffffffffffffffffffffffffffffffffffffffff1660008054906101000a900473ffffffffffffffffffffffffffffffffffffffff1673ffffffffffffffffffffffffffffffffffffffff16146102f8576040517f08c379a00000000000000000000000000000000000000000000000000000000081526004016102ef90610753565b60405180910390fd5b6003600180549050101561030b57600080fd5b600060018054905061031b61047f565b61032591906107a2565b905060006001828154811061033d5761033c6107d3565b5b9060005260206000200160009054906101000a900473ffffffffffffffffffffffffffffffffffffffff1690508073ffffffffffffffffffffffffffffffffffffffff166108fc61038c6101d4565b9081150290604051600060405180830381858888f193505050501580156103b7573d6000803e3d6000fd5b50600067ffffffffffffffff8111156103d3576103d2610802565b5b6040519080825280602002602001820160405280156104015781602001602082028036833780820191505090505b50600190805190602001906104179291906104b9565b505050565b6001818154811061042c57600080fd5b906000526020600020016000915054906101000a900473ffffffffffffffffffffffffffffffffffffffff1681565b60008054906101000a900473ffffffffffffffffffffffffffffffffffffffff1681565b6000444260018054905060405160200161049b93929190610852565b6040516020818303038152906040528051906020012060001c905090565b828054828255906000526020600020908101928215610532579160200282015b828111156105315782518260006101000a81548173ffffffffffffffffffffffffffffffffffffffff021916908373ffffffffffffffffffffffffffffffffffffffff160217905550916020019190600101906104d9565b5b50905061053f9190610543565b5090565b5b8082111561055c576000816000905550600101610544565b5090565b600082825260208201905092915050565b7f3220657468657220697320726571756972656400000000000000000000000000600082015250565b60006105a7601383610560565b91506105b282610571565b602082019050919050565b600060208201905081810360008301526105d68161059a565b9050919050565b6000819050919050565b6105f0816105dd565b82525050565b600060208201905061060b60008301846105e7565b92915050565b600080fd5b61061f816105dd565b811461062a57600080fd5b50565b60008135905061063c81610616565b92915050565b60006020828403121561065857610657610611565b5b60006106668482850161062d565b91505092915050565b600073ffffffffffffffffffffffffffffffffffffffff82169050919050565b600061069a8261066f565b9050919050565b6106aa8161068f565b82525050565b60006020820190506106c560008301846106a1565b92915050565b60006106d68261066f565b9050919050565b6106e6816106cb565b82525050565b600060208201905061070160008301846106dd565b92915050565b7f4f6e6c79204d616e616765722063616e204d6f64696679000000000000000000600082015250565b600061073d601783610560565b915061074882610707565b602082019050919050565b6000602082019050818103600083015261076c81610730565b9050919050565b7f4e487b7100000000000000000000000000000000000000000000000000000000600052601260045260246000fd5b60006107ad826105dd565b91506107b8836105dd565b9250826107c8576107c7610773565b5b828206905092915050565b7f4e487b7100000000000000000000000000000000000000000000000000000000600052603260045260246000fd5b7f4e487b7100000000000000000000000000000000000000000000000000000000600052604160045260246000fd5b6000819050919050565b61084c610847826105dd565b610831565b82525050565b600061085e828661083b565b60208201915061086e828561083b565b60208201915061087e828461083b565b60208201915081905094935050505056fea2646970667358221220d91b4ca95c3085461cc07d462baaceb4559662dbd41b026ca1aec45837f59c3864736f6c63430008170033",
  "linkReferences": {},
  "deployedLinkReferences": {}
}